:100000000C9434000C943E000C943E000C943E0082
:100010000C943E000C943E000C943E000C943E0068
:100020000C943E000C943E000C943E000C943E0058
:100030000C943E000C943E000C943E000C943E0048
:100040000C943E000C943E000C943E000C943E0038
:100050000C943E000C943E000C943E000C943E0028
:100060000C943E000C943E0011241FBECFEFD8E04C
:10007000DEBFCDBF0E944D000C945C000C940000CC
:10008000FC01EF2B49F028EC3AE000003A95E9F743
:100090002A95D1F70197B9F70895529A5A9A539829
:1000A0005B9A89B1887089B18870803009F402C088
:0C00B0005A9A01C05A98F7CFF894FFCF7D
:00000001FF
