:100000000C9434000C943E000C943E000C943E0082
:100010000C943E000C943E000C943E000C943E0068
:100020000C943E000C943E000C943E000C943E0058
:100030000C943E000C943E000C943E000C943E0048
:100040000C943E000C943E000C943E000C943E0038
:100050000C943E000C943E000C943E000C943E0028
:100060000C943E000C943E0011241FBECFEFD8E04C
:10007000DEBFCDBF0E944D000C947C000C940000AC
:10008000FC01EF2B49F028EC3AE000003A95E9F743
:100090002A95D1F70197B9F70895529A5A9A539A27
:1000A0005B9884EF91E0ECDF5A985B9A84EF91E0E3
:1000B000E7DF5A985B9854985C9A89B1807189B14E
:1000C0008071803009F40CC05B985A9A8CE291E000
:1000D000D7DF5A988CE291E0D3DF5B985A9A0BC035
:1000E0005A985B9A8CE291E0CBDF5B988CE291E0CE
:0C00F000C7DF5A985B9AE3CFF894FFCF6B
:00000001FF
