:100000000C9434000C943E000C943E000C943E0082
:100010000C943E000C943E000C943E000C943E0068
:100020000C943E000C943E000C943E000C943E0058
:100030000C943E000C943E000C943E000C943E0048
:100040000C943E000C943E000C943E000C943E0038
:100050000C943E000C943E000C943E000C943E0028
:100060000C943E000C943E0011241FBECFEFD8E04C
:10007000DEBFCDBF0E944D000C9459000C940000CF
:10008000FC01EF2B49F028EC3AE000003A95E9F743
:100090002A95D1F70197B9F7089553985B9A89B1DA
:1000A0008870803009F403C0529A5A9A01C05A9855
:0600B000F4CFF894FFCF2D
:00000001FF
