:100000000C9434000C943E000C943E000C943E0082
:100010000C943E000C943E000C943E000C943E0068
:100020000C943E000C943E000C943E000C943E0058
:100030000C943E000C943E000C943E000C943E0048
:100040000C943E000C943E000C943E000C943E0038
:100050000C943E000C943E000C943E000C943E0028
:100060000C943E000C943E0011241FBECFEFD8E04C
:10007000DEBFCDBF0E944D000C945C000C940000CC
:10008000FC01EF2B49F028EC3AE000003A95E9F743
:100090002A95D1F70197B9F70895529A5A98539A29
:1000A0005B9A80ED97E0ECDF529A5A9A539A5B98EC
:0C00B00080ED97E0E5DFF1CFF894FFCF82
:00000001FF
